:100000000C9463000C948B000C948B000C94ED0505
:100010000C94ED050C94ED050C948B000C943905B3
:100020000C948B000C948B000C948B000C948B0024
:100030000C948B000C948B000C948B000C948B0014
:100040000C94EF040C948B000C94BB050C94950558
:100050000C948B000C948B000C948B000C948B00F4
:100060000C948B000C948B000200000000230026EF
:1000700000290000000000240027002A00000000E2
:1000800000250028002B00040404040404040402D6
:100090000202020202030303030303010204081025
:1000A00020408001020408102001020408102000F2
:1000B0000000080002010000030407000000000027
:1000C00000000000880911241FBECFEFD8E0DEBF7A
:1000D000CDBF22E0A2E3B1E001C01D92A333B2077D
:1000E000E1F711E0A0E0B1E0EEECFAE102C005902A
:1000F0000D92A233B107D9F710E0C3E6D0E004C0F7
:100100002197FE010E946D0BC236D107C9F70E94EC
:1001100065060C94650D0C94000090E0FC01E1551F
:10012000FF4F2491FC01E556FF4F3491FC01E95744
:10013000FF4FE491EE23C9F0222339F0233001F17F
:10014000A8F4213019F1223029F1F0E0EE0FFF1F61
:10015000E358FF4FA591B4918FB7F894EC916111DA
:1001600026C030953E233C938FBF08952730A9F0D9
:100170002830C9F0243049F7809180008F7D03C07A
:10018000809180008F7780938000DFCF84B58F7758
:1001900084BDDBCF84B58F7DFBCF8091B0008F779E
:1001A0008093B000D2CF8091B0008F7DF9CF3E2BED
:1001B000DACFCF93DF9390E0FC01E556FF4F249117
:1001C00089579F4FFC0184918823D1F090E0880FDC
:1001D000991FFC01ED58FF4FA591B491FC01E35824
:1001E000FF4FC591D49161110EC09FB7F8948C91C7
:1001F000E22FE0958E238C932881E223E8839FBF32
:10020000DF91CF9108958FB7F894EC91E22BEC93A6
:100210008FBFF6CF1F93CF93DF93182FEB0161E0D1
:100220000E94D900209739F460E0812FDF91CF91AF
:100230001F910C948D00CF3FD10511F461E0F5CFF3
:10024000E12FF0E0E155FF4FE491E33031F140F46C
:10025000E130B1F0E230E1F0C038D1057CF7E4CF15
:10026000E73029F1E83059F1E430B1F780918000AE
:10027000806280938000D0938B00C0938A0004C07A
:1002800084B5806884BDC7BDDF91CF911F9108956B
:1002900084B5806284BDC8BDF7CF8091800080683E
:1002A00080938000D0938900C0938800EDCF809127
:1002B000B00080688093B000C093B300E5CF809118
:1002C000B00080628093B000C093B400DDCF3FB730
:1002D000F89480912B0290912C02A0912D02B09164
:1002E0002E0226B5A89B05C02F3F19F00196A11D2F
:1002F000B11D3FBFBA2FA92F982F8827BC01CD0170
:10030000620F711D811D911D42E0660F771F881FCE
:10031000991F4A95D1F708958F929F92AF92BF92FD
:10032000CF92DF92EF92FF926B017C010E946701F6
:100330004B015C01C114D104E104F104B9F00E9445
:100340006701681979098A099B09683E734081052C
:10035000910580F321E0C21AD108E108F10888EE86
:10036000880E83E0981EA11CB11CE4CFFF90EF9093
:10037000DF90CF90BF90AF909F908F900895909115
:10038000000189130BC0E8E6F0E0E4919FEF909341
:100390000001E13049F028F0E23061F060E00C94B7
:1003A0008D0010926E00FACF90916F009D7F909318
:1003B0006F00F4CF909170009D7F9093700091E05A
:1003C0009093B0009091B100987F94609093B100A9
:1003D0001092B300E3CFAF92BF92CF92DF92EF9231
:1003E000FF920F931F93CF93DF936C017B018B01DF
:1003F000040F151FEB015E01AE18BF08C017D1072F
:1004000059F06991D601ED91FC910190F081E02DB8
:10041000C6010995892B79F7C501DF91CF911F910D
:100420000F91FF90EF90DF90CF90BF90AF90089525
:10043000FC01538D448D252F30E0842F90E0821BEA
:10044000930B541710F0CF96089501970895FC016F
:10045000918D828D981761F0A28DAE0FBF2FB11DC7
:100460005D968C91928D9F5F9F73928F90E008951F
:100470008FEF9FEF0895FC01918D828D981731F0D9
:10048000828DE80FF11D858D90E008958FEF9FEF2D
:100490000895FC01918D228D892F90E0805C9F4F03
:1004A000821B91098F739927089587E891E00E9434
:1004B000490221E0892B09F420E0822F089580E091
:1004C00090E0892B29F00E94550281110C940000C4
:1004D0000895FC01A48DA80FB92FB11DA35ABF4FD9
:1004E0002C91848D90E001968F739927848FA68933
:1004F000B7892C93A089B1898C91837080648C9387
:10050000938D848D981306C00288F389E02D808135
:100510008F7D80830895EF92FF920F931F93CF9367
:10052000DF93EC0181E0888F9B8D8C8D98131AC02E
:10053000E889F989808185FF15C09FB7F894EE8915
:10054000FF896083E889F989808183708064808372
:100550009FBF81E090E0DF91CF911F910F91FF90BD
:10056000EF900895F62E0B8D10E00F5F1F4F0F7365
:100570001127E02E8C8D8E110CC00FB607FCFACF20
:10058000E889F989808185FFF5CFCE010E94690253
:10059000F1CFEB8DEC0FFD2FF11DE35AFF4FF082F1
:1005A0009FB7F8940B8FEA89FB8980818062CFCF57
:1005B000CF93DF93EC01888D8823B9F0AA89BB899A
:1005C000E889F9898C9185FD03C0808186FD0DC085
:1005D0000FB607FCF7CF8C9185FFF2CF808185FFA6
:1005E000EDCFCE010E946902E9CFDF91CF9108954E
:1005F00020918501309186012817390771F4909177
:10060000830180918401981741F0E0918301F0E02B
:10061000E45CFE4F808190E008958FEF9FEF089596
:100620000895EF92FF920F931F93CF93DF93DC0116
:100630005C96ED90FC905D97E114F10479F481E013
:1006400090E013969C938E93129790E080E0DF9158
:10065000CF911F910F91FF90EF9008955196ED91DA
:10066000FC91529750968C915097982F90950FB778
:100670005E962C915E97122F127021FD6095F89472
:100680002081112319F1282B2083E7012197F1F70D
:1006900028E0462F50E0308160FF1AC0382B3083AD
:1006A000E7012197F1F7BA0175956795215089F710
:1006B000112381F08081892380830FBF5C968D9107
:1006C0009C910197F1F781E090E0C1CF2923DCCF25
:1006D0003923E5CF9081892BEFCF2091850130918F
:1006E00086012817390761F48091840120918301E4
:1006F00090E0805C9F4F821B91098F73992708952A
:1007000090E080E0089520918501309186012817BE
:100710003907B9F49091830180918401981789F089
:10072000E0918301F0E0E45CFE4F80812091830141
:1007300030E02F5F3F4F2F7333272093830190E0EA
:1007400008958FEF9FEF089590E080E008958F92D5
:100750009F92AF92BF92CF92DF92EF92FF920F9350
:100760001F93CF936C018B017A01FC0180859185E9
:1007700020910001281711F12F3F09F462C0B70141
:10078000FF0C880B990B0E94B70926E636E646EA6D
:100790005FE30E94F2090E94F60A0E948C01F601B2
:1007A0008085CF911F910F91FF90EF90DF90CF90B8
:1007B000BF90AF909F908F900C94BF01E8E6F0E05F
:1007C000C491C7FDDCCF61E00E94D900C1114DC0CA
:1007D00062E17AE780E090E09801012E000C440B82
:1007E000550B0E94470B49015A01F1E08F1A9108FD
:1007F000A108B10885B5887F846085BD9801220F66
:10080000331FD7010E94660B28EE33E040E050E032
:100810000E94250BC13009F4C0C0C23009F4CFC01A
:10082000C111ADCF87BC209338013093390140937B
:100830003A0150933B0180916E00826080936E007C
:100840009ECF80930001E8E6F0E0C491CF3F09F429
:1008500096CFC13009F442C020F1C23009F460C023
:10086000C7FD8DCF61E00E94D9009801012E000CD8
:10087000440B550BC23009F079C064E274EF80E09C
:1008800090E00E94470B49015A0181E0881A9108C3
:10089000A108B1088091B100887F85608093B10084
:1008A000ADCF14BC15BC24B5226024BD25B5216094
:1008B00025BD9C013327F901E957FF4FE491F0E092
:1008C000EE0FFF1FE358FF4F45915491F901E55694
:1008D000FF4FE491E0933301C0E075CF10928000A8
:1008E0001092810020918100286020938100209146
:1008F00081002160209381009C013327F901E95791
:10090000FF4FE491F0E0EE0FFF1FE358FF4F4591DA
:100910005491F901E556FF4FE491E093320153CF32
:100920001092B0001092B1002091B000226020938C
:10093000B0002091B10021602093B1009C013327C9
:10094000F901E957FF4FE491F0E0EE0FFF1FE35884
:10095000FF4F4591549150937D0140937C01F901E3
:10096000E556FF4FE491E0937E012DCF60E072E108
:100970008AE790E00E94470B49015A01E1E08E1A94
:100980009108A108B108C13009F038CF80918100E9
:10099000887F81608093810031CF9092890080921E
:1009A00088002093340130933501409336015093F1
:1009B000370180916F00826080936F00E0CE80925B
:1009C000B30020937F0130938001409381015093C5
:1009D000820180917000826080937000D0CE1F925F
:1009E0000F920FB60F9211242F933F938F939F93E3
:1009F000AF93BF938091270290912802A091290282
:100A0000B0912A023091260223E0230F2D3758F5AA
:100A10000196A11DB11D2093260280932702909379
:100A20002802A0932902B0932A0280912B02909170
:100A30002C02A0912D02B0912E020196A11DB11D94
:100A400080932B0290932C02A0932D02B0932E0240
:100A5000BF91AF919F918F913F912F910F900FBEBA
:100A60000F901F90189526E8230F0296A11DB11D27
:100A7000D2CF1F920F920FB60F9211242F933F9354
:100A80004F935F936F937F938F939F93AF93BF9396
:100A9000EF93FF9380917F0190918001A09181015C
:100AA000B0918201892B8A2B8B2BD1F190917E0101
:100AB000E0917C01F0917D01808189278083809184
:100AC0007F0190918001A0918101B091820118165F
:100AD00019061A061B069CF480917F0190918001F3
:100AE000A0918101B09182010197A109B109809380
:100AF0007F0190938001A0938101B0938201FF91C7
:100B0000EF91BF91AF919F918F917F916F915F9185
:100B10004F913F912F910F900FBE0F901F901895FE
:100B2000809100010E94BF01EACF1F920F920FB681
:100B30000F9211242F933F934F935F936F937F9363
:100B40008F939F93AF93BF93EF93FF9387E891E0C9
:100B50000E946902FF91EF91BF91AF919F918F9198
:100B60007F916F915F914F913F912F910F900FBEA9
:100B70000F901F9018951F920F920FB60F9211248D
:100B80002F938F939F93EF93FF93E0919701F091B1
:100B900098018081E0919D01F0919E0182FD1BC032
:100BA00090818091A0018F5F8F732091A1018217A6
:100BB00041F0E091A001F0E0E957FE4F958F80935E
:100BC000A001FF91EF919F918F912F910F900FBEF8
:100BD0000F901F9018958081F4CF1F920F920FB63F
:100BE0000F9211242F933F934F935F936F937F93B3
:100BF0008F939F93AF93BF93EF93FF93E091850102
:100C0000F0918601309749F0A685B7858585968D48
:100C100091FF14C09C918923A1F4FF91EF91BF91A2
:100C2000AF919F918F917F916F915F914F913F9184
:100C30002F910F900FBE0F901F9018959C918923B4
:100C400061F7A389B4899C918589809589238C93C8
:100C5000868997890197F1F7608D718DA685B78593
:100C6000558538E020E0CB010197F1F7822F90E025
:100C700095958795282F4C91452309F02068315090
:100C800091F7868D81FD20958091840190E00196F9
:100C90008F73992730918301381799F0A0918401BF
:100CA000B0E0A45CBE4F2C9380938401828D938D21
:100CB0000197F1F7A389B4898C919589892B8C933D
:100CC000ACCF868D8160868FF1CF789484B58260B9
:100CD00084BD84B5816084BD85B5826085BD85B5E0
:100CE000816085BD80916E00816080936E0010925E
:100CF00081008091810082608093810080918100D9
:100D00008160809381008091800081608093800069
:100D10008091B10084608093B1008091B0008160C7
:100D20008093B00080917A00846080937A008091F3
:100D30007A00826080937A0080917A00816080934B
:100D40007A0080917A00806880937A001092C100C6
:100D5000E0919701F091980182E08083E091930106
:100D6000F09194011082E0919501F09196018FEC41
:100D7000808310929F01E0919B01F0919C0186E09D
:100D80008083E0919901F0919A0180818061808354
:100D9000E0919901F0919A01808188608083E091CF
:100DA0009901F0919A01808180688083E091990196
:100DB000F0919A0180818F7D808382E190E00E9492
:100DC000730B8C018FEF90E0D80113969C938E9358
:100DD000129782E090E015969C938E93149783E08F
:100DE00090E017969C938E93169784E090E0199666
:100DF0009C938E93189785E090E01B969C938E931E
:100E00001A9786E090E01D969C938E931C9789E03C
:100E100090E01F969C938E931E978BE090E05196E6
:100E20009C938E9350978FE190E00E94730BEC019E
:100E30001B821A8288EE93E0A0E0B0E08C839D8351
:100E4000AE83BF838DE191E0998388831F8A1E8AD8
:100E5000198E188E1B8E1A8E1D8E1C8E6E8D6E7FB7
:100E60006D7F6E8F6695617081E0682783E00E94D8
:100E70008D0061E083E00E94D900EEE9F0E0E491AA
:100E8000E88BEAE8F0E0E491F0E0EE0FFF1FE358B2
:100E9000FF4F859194919A8B898B60E082E00E944C
:100EA000D9008E8D81FD04C061E082E00E948D003A
:100EB00082E08C87EDE9F0E0E491ED87E9E8F0E08D
:100EC000E491F0E0EE0FFF1FE759FF4F85919491F9
:100ED0009F878E87F801D183C0838DE991E09D8F34
:100EE0008C8F8DEB90E09F8B8E8B8BE991E0998FAF
:100EF000888F8CE291E09B8F8A8F8091680084605C
:100F0000809368009C852DE630E0983050F02BE609
:100F100030E09E3030F02CE630E0963110F030E0DA
:100F200020E03C8B2B8B292F30E0983008F081C0DB
:100F300081E001C0880F9A95EAF78D8B8C8D9D8D8D
:100F40000197F1F78A8D9B8D892B09F1E09185013D
:100F5000F0918601CE17DF07D1F0309739F0A389E1
:100F6000B4899C918589809589238C938E8D8E7F01
:100F70008E8F1092840110928301D0938601C093CA
:100F80008501EB89FC8980819D89892B808364E6BA
:100F900070E080E090E00E948C0163E070E090E0FF
:100FA00080E00E94980CEC0150E040E0009739F09E
:100FB00018826BE271E00E945E0D42E050E0D801C1
:100FC000ED90FC90D701ED91FC910280F381E02D32
:100FD000BE01C7010995D701ED91FC910280F38113
:100FE000E02D42E050E06EE271E0C701099564E651
:100FF00070E080E090E00E948C01F8018081918196
:10100000DC01ED91FC910084F185E02D0995892B9F
:10101000E9F0F80180819181DC01ED91FC9102847D
:10102000F385E02D0995682F87E891E00E948B02F7
:10103000E4CF9E3040F42850310981E001C0880F90
:101040002A95EAF77ACF2E503109F7CF209719F079
:10105000CE010E940F0C61E085E00E94D90061E0A2
:1010600086E00E94D90061E089E00E94D90061E039
:101070008BE00E94D90061E084E00E94D90070E01A
:1010800060E085E00E940A0170E060E086E00E9476
:101090000A0170E060E089E00E940A0170E060E00F
:1010A0008BE00E940A011093250200932402F801AC
:1010B00080819181DC01ED91FC910084F185E02D2E
:1010C0000995892B69F500E010E0C0912402D091C8
:1010D000250288819981DC01ED91FC910084F185E4
:1010E000E02D0995892B99F188819981DC01ED9199
:1010F000FC910284F385E02D0995863409F49CC0A7
:10110000FCF4823409F4BBC0833409F4F5C08033A5
:10111000F1F4C0912402D091250270E060E0CEC0CD
:10112000F80180819181DC01ED91FC910284F385CD
:10113000E02D0995682F87E891E00E948B02B7CFD8
:10114000823509F4C6C07CF48C3409F4B1C00115B1
:10115000110509F4BACF0E945502882309F4B5CFCE
:101160000E940000B2CF833509F4BAC0843579F704
:10117000C0912402D091250246E950E066E071E07A
:10118000CE010E94A70346E950E066E271E0CE017D
:101190000E94A70346E950E06AE471E0CE010E9494
:1011A000A70346E950E066E071E0CE010E94A70384
:1011B00066E970E080E090E00E948C0146E950E032
:1011C0006AE471E0CE010E94A70346E950E06DE5B4
:1011D00071E0CE010E94A7034CE251E068E871E0A3
:1011E000CE010E94A70366E970E080E090E00E94D3
:1011F0008C0146E950E068E871E0CE010E94A70347
:1012000046E950E06DE571E0CE010E94A70346E992
:1012100050E06AE471E0CE010E94A7034CE251E085
:1012200066E071E0CE010E94A7036CE271E080E00D
:1012300090E00E948C018BCF66E487E891E00E94E9
:101240008B0242E050E06EE271E087E891E00E949C
:10125000EB01C0912402D09125026A817B818A85AD
:101260000E940A0170E060E08C850E940A016A8198
:101270007B818E850E940A0170E060E015C0C091FC
:101280002402D091250270E060E08A850E940A0164
:101290006A817B818C850E940A0170E060E08E8506
:1012A0000E940A016A817B8188890E940A014FCFCE
:1012B000C0912402D09125026A817B818A850E9497
:1012C0000A0170E060E08C850E940A0170E060E035
:1012D000D0CFC0912402D091250270E060E0BFCF52
:1012E000C0912402D09125026A817B818A850E9467
:1012F0000A0170E060E0CECFC0912402D0912502B7
:1013000070E060E08A850E940A016A817B81ACCF2F
:10131000E7E8F1E01382128288EE93E0A0E0B0E00B
:1013200084839583A683B7838BE091E09183808348
:1013300085EC90E09587848784EC90E0978786879A
:1013400080EC90E0918B808B81EC90E0938B828B92
:1013500082EC90E0958B848B86EC90E0978B868B6B
:10136000118E128E138E148E0895E89409C097FB87
:101370003EF490958095709561957F4F8F4F9F4F6C
:101380009923A9F0F92F96E9BB279395F6958795B0
:1013900077956795B795F111F8CFFAF4BB0F11F473
:1013A00060FF1BC06F5F7F4F8F4F9F4F16C088231A
:1013B00011F096E911C0772321F09EE8872F762F50
:1013C00005C0662371F096E8862F70E060E02AF091
:1013D0009A95660F771F881FDAF7880F969587957D
:1013E00097F908950E94050A0C94760A0E94680AEB
:1013F00038F00E946F0A20F0952311F00C945F0AD8
:101400000C94650A11240C94AA0A0E94870A70F3AE
:10141000959FC1F3950F50E0551F629FF001729F99
:10142000BB27F00DB11D639FAA27F00DB11DAA1FA8
:10143000649F6627B00DA11D661F829F2227B00DF5
:10144000A11D621F739FB00DA11D621F839FA00D80
:10145000611D221F749F3327A00D611D231F849FD0
:10146000600D211D822F762F6A2F11249F57504027
:101470009AF0F1F088234AF0EE0FFF1FBB1F661FA2
:10148000771F881F91505040A9F79E3F510580F06B
:101490000C945F0A0C94AA0A5F3FE4F3983ED4F3DD
:1014A000869577956795B795F795E7959F5FC1F70F
:1014B000FE2B880F911D9695879597F9089597F9BA
:1014C0009F6780E870E060E008959FEF80EC0895EA
:1014D00000240A9416161706180609060895002413
:1014E0000A9412161306140605060895092E03948D
:1014F000000C11F4882352F0BB0F40F4BF2B11F401
:1015000060FF04C06F5F7F4F8F4F9F4F089557FD5F
:101510009058440F551F59F05F3F71F04795880F61
:1015200097FB991F61F09F3F79F0879508951216F8
:1015300013061406551FF2CF4695F1DF08C01616A4
:1015400017061806991FF1CF869571056105089455
:101550000895E894BB2766277727CB0197F908956C
:101560002F923F924F925F926F927F928F929F92B3
:10157000AF92BF92CF92DF92EF92FF920F931F93A1
:10158000CF93DF93CDB7DEB7CA1BDB0B0FB6F89452
:10159000DEBF0FBECDBF09942A88398848885F8492
:1015A0006E847D848C849B84AA84B984C884DF8003
:1015B000EE80FD800C811B81AA81B981CE0FD11DE7
:1015C0000FB6F894DEBF0FBECDBFED010895A29F08
:1015D000B001B39FC001A39F700D811D1124911D07
:1015E000B29F700D811D1124911D08950E948F0AD4
:1015F00088F09F5798F0B92F9927B751B0F0E1F0D4
:10160000660F771F881F991F1AF0BA95C9F714C083
:10161000B13091F00E94A90AB1E008950C94A90A92
:10162000672F782F8827B85F39F0B93FCCF38695BC
:1016300077956795B395D9F73EF490958095709519
:1016400061957F4F8F4F9F4F0895A1E21A2EAA1BDD
:10165000BB1BFD010DC0AA1FBB1FEE1FFF1FA21762
:10166000B307E407F50720F0A21BB30BE40BF50B5F
:10167000661F771F881F991F1A9469F760957095E8
:10168000809590959B01AC01BD01CF010895052E79
:1016900097FB1EF400940E945E0B57FD07D00E943A
:1016A000250B07FC03D04EF40C945E0B509540952F
:1016B000309521953F4F4F4F5F4F089590958095FE
:1016C000709561957F4F8F4F9F4F08950E94E70A55
:1016D000B7FF0895821B930B0895EE0FFF1F05902F
:1016E000F491E02D09940F931F93CF93DF938230F1
:1016F000910510F482E090E0E0913102F091320225
:1017000030E020E0B0E0A0E0309799F421153105F9
:1017100009F44AC0281B390B24303105D8F58A81D9
:101720009B816115710589F1FB0193838283FE0121
:1017300011C0408151810281138148175907E0F09F
:101740004817590799F4109761F012960C93129765
:1017500013961C933296CF01DF91CF911F910F9179
:1017600008950093310210933202F4CF2115310510
:1017700051F04217530738F0A901DB019A01BD016E
:10178000DF01F801C1CFEF01F9CF909332028093CE
:101790003102CDCFFE01E20FF31F819391932250CE
:1017A000310939832883D7CF20912F02309130021D
:1017B000232B41F420910301309104013093300236
:1017C00020932F0220910101309102012115310552
:1017D00041F42DB73EB74091050150910601241BFD
:1017E000350BE0912F02F0913002E217F307A0F4DD
:1017F0002E1B3F0B2817390778F0AC014E5F5F4F67
:101800002417350748F04E0F5F1F50933002409366
:101810002F02819391939FCFF0E0E0E09CCFCF9394
:10182000DF930097E9F0FC01329713821282A091B6
:101830003102B0913202ED0130E020E01097A1F4C6
:1018400020813181820F931F20912F02309130022D
:101850002817390709F061C0F0933002E0932F0296
:10186000DF91CF910895EA01CE17DF07E8F54A81AD
:101870005B819E0141155105B1F7E901FB83EA83C4
:1018800049915991C40FD51FEC17FD0761F4808170
:1018900091810296840F951FE90199838883828143
:1018A00093819B838A83F0E0E0E012968D919C9176
:1018B00013970097B9F52D913C911197CD010296A0
:1018C000820F931F20912F02309130022817390781
:1018D00039F6309751F51092320210923102B093DE
:1018E0003002A0932F02BCCFD383C28340815181A9
:1018F000840F951FC817D90761F44E5F5F4F888129
:101900009981480F591F518340838A819B8193831A
:1019100082832115310509F0B0CFF0933202E093B4
:1019200031029ECFFD01DC01C0CF13821282D7CFDE
:10193000B0E0A0E0EEE9FCE00C94B20A8C01009764
:1019400051F4CB010E94730B8C01C801CDB7DEB7F7
:10195000E0E10C94CE0AFC01E60FF71F9C01225037
:101960003109E217F30708F49DC0D901CD91DC914C
:101970001197C617D70798F0C530D10530F3CE01BF
:1019800004978617970708F3C61BD70B2297C193B6
:10199000D1936D937C93CF010E940F0CD6CF5B0146
:1019A000AC1ABD0A4C018C0E9D1EA0913102B09163
:1019B0003202512C412CF12CE12C109731F5809101
:1019C0002F02909130028815990509F05CC04616E7
:1019D000570608F058C080910101909102010097CC
:1019E00041F48DB79EB74091050150910601841BCB
:1019F000950BE817F90708F055C0F0933002E09313
:101A00002F02F90171836083A0CF8D919C91119772
:101A100012966C90129713967C901397A815B9059F
:101A200059F56C0142E0C40ED11CCA14DB0420F14C
:101A3000AC014A195B09DA011296159780F06282AF
:101A4000738251834083D9016D937C93E114F10437
:101A500071F0D7011396FC93EE93129776CF2296EE
:101A60008C0F9D1FF90191838083F301EFCFF093D9
:101A70003202E093310269CF4816590608F42C016E
:101A80007D01D3019ACFCB010E94730B7C0100979B
:101A900049F0AE01B8010E94550DC8010E940F0C1B
:101AA000870153CF10E000E050CFFB01DC0102C002
:101AB00001900D9241505040D8F70895FB01DC0190
:0E1AC00001900D920020E1F70895F894FFCFF9
:101ACE00FF000033028000000000008B02EB0118C3
:101ADE0002D802490227023B02000000001103EB6C
:101AEE0001A40310036D038303F8024154000D0A91
:021AFE000000E6
:00000001FF
