:100000000C9463000C948B000C948B000C94A5044E
:100010000C94A5040C94A5040C948B000C94F1038F
:100020000C948B000C948B000C948B000C948B0024
:100030000C948B000C948B000C948B000C948B0014
:100040000C94A7030C948B000C9473040C944D0433
:100050000C948B000C948B000C948B000C948B00F4
:100060000C948B000C948B000000000023002600F1
:1000700029000200000000240027002A00000000E0
:1000800000250028002B00040404040404040402D6
:100090000202020202030303030303010204081025
:1000A00020408001020408102001020408102000F2
:1000B0000000080002010000030407000000000027
:1000C00000000000930811241FBECFEFD8E0DEBF70
:1000D000CDBF22E0A2E3B1E001C01D92A333B2077D
:1000E000E1F711E0A0E0B1E0E2EEF5E102C0059039
:1000F0000D92A233B107D9F710E0C3E6D0E004C0F7
:100100002197FE010E94F708C236D107C9F70E9465
:100110001D050C94EF0A0C940000FC01538D448DD6
:10012000252F30E0842F90E0821B930B541710F0A2
:10013000CF96089501970895FC01918D828D9817AF
:1001400061F0A28DAE0FBF2FB11D5D968C91928D87
:100150009F5F9F73928F90E008958FEF9FEF0895B8
:10016000FC01918D828D981731F0828DE80FF11D81
:10017000858D90E008958FEF9FEF0895FC01918D9C
:10018000228D892F90E0805C9F4F821B91098F7395
:1001900099270895FC01A48DA80FB92FB11DA35A6A
:1001A000BF4F2C91848D90E001968F739927848F97
:1001B000A689B7892C93A089B1898C9183708064BA
:1001C0008C93938D848D981306C00288F389E02D5B
:1001D00080818F7D80830895EF92FF920F931F930C
:1001E000CF93DF93EC0181E0888F9B8D8C8D9813EA
:1001F0001AC0E889F989808185FF15C09FB7F894F6
:10020000EE89FF896083E889F98980818370806441
:1002100080839FBF81E090E0DF91CF911F910F918C
:10022000FF90EF900895F62E0B8D10E00F5F1F4F9B
:100230000F731127E02E8C8D8E110CC00FB607FCAA
:10024000FACFE889F989808185FFF5CFCE010E9438
:10025000CA00F1CFEB8DEC0FFD2FF11DE35AFF4FDC
:10026000F0829FB7F8940B8FEA89FB8980818062C6
:10027000CFCFCF93DF93EC01888D8823B9F0AA8983
:10028000BB89E889F9898C9185FD03C0808186FD51
:100290000DC00FB607FCF7CF8C9185FFF2CF8081A0
:1002A00085FFEDCFCE010E94CA00E9CFDF91CF914B
:1002B000089586E791E00E94BE0021E0892B09F4B1
:1002C00020E0822F089580E090E0892B29F00E94A1
:1002D000590181110C940000089590E0FC01E15552
:1002E000FF4F2491FC01E556FF4F3491FC01E95783
:1002F000FF4FE491EE23C9F0222339F0233001F1BE
:10030000A8F4213019F1223029F1F0E0EE0FFF1F9F
:10031000E358FF4FA591B4918FB7F894EC91611118
:1003200026C030953E233C938FBF08952730A9F017
:100330002830C9F0243049F7809180008F7D03C0B8
:10034000809180008F7780938000DFCF84B58F7796
:1003500084BDDBCF84B58F7DFBCF8091B0008F77DC
:100360008093B000D2CF8091B0008F7DF9CF3E2B2B
:10037000DACFCF93DF9390E0FC01E556FF4F249155
:1003800089579F4FFC0184918823D1F090E0880F1A
:10039000991FFC01ED58FF4FA591B491FC01E35862
:1003A000FF4FC591D49161110EC09FB7F8948C9105
:1003B000E22FE0958E238C932881E223E8839FBF70
:1003C000DF91CF9108958FB7F894EC91E22BEC93E5
:1003D0008FBFF6CF1F93CF93DF93182FEB0161E010
:1003E0000E94B901209739F460E0812FDF91CF910D
:1003F0001F910C946D01CF3FD10511F461E0F5CF51
:10040000E12FF0E0E155FF4FE491E33031F140F4AA
:10041000E130B1F0E230E1F0C038D1057CF7E4CF53
:10042000E73029F1E83059F1E430B1F780918000EC
:10043000806280938000D0938B00C0938A0004C0B8
:1004400084B5806884BDC7BDDF91CF911F910895A9
:1004500084B5806284BDC8BDF7CF8091800080687C
:1004600080938000D0938900C0938800EDCF809165
:10047000B00080688093B000C093B300E5CF809156
:10048000B00080628093B000C093B400DDCF3FB76E
:10049000F89480912B0290912C02A0912D02B091A2
:1004A0002E0226B5A89B05C02F3F19F00196A11D6D
:1004B000B11D3FBFBA2FA92F982F8827BC01CD01AE
:1004C000620F711D811D911D42E0660F771F881F0D
:1004D000991F4A95D1F708958F929F92AF92BF923C
:1004E000CF92DF92EF92FF926B017C010E94470254
:1004F0004B015C01C114D104E104F104B9F00E9484
:100500004702681979098A099B09683E7340810589
:10051000910580F321E0C21AD108E108F10888EEC4
:10052000880E83E0981EA11CB11CE4CFFF90EF90D1
:10053000DF90CF90BF90AF909F908F900895909153
:10054000000189130BC0E2E7F0E0E4919FEF909384
:100550000001E13049F028F0E23061F060E00C94F5
:100560006D0110926E00FACF90916F009D7F909375
:100570006F00F4CF909170009D7F9093700091E098
:100580009093B0009091B100987F94609093B100E7
:100590001092B300E3CFAF92BF92CF92DF92EF926F
:1005A000FF920F931F93CF93DF936C017B018B011D
:1005B000040F151FEB015E01AE18BF08C017D1076D
:1005C00059F06991D601ED91FC910190F081E02DF7
:1005D000C6010995892B79F7C501DF91CF911F914C
:1005E0000F91FF90EF90DF90CF90BF90AF90089564
:1005F00020917401309175012817390771F4909199
:10060000720180917301981741F0E0917201F0E05E
:10061000EE5CFE4F808190E008958FEF9FEF08958C
:100620000895EF92FF920F931F93CF93DF93DC0116
:100630005C96ED90FC905D97E114F10479F481E013
:1006400090E013969C938E93129790E080E0DF9158
:10065000CF911F910F91FF90EF9008955196ED91DA
:10066000FC91529750968C915097982F90950FB778
:100670005E962C915E97122F127021FD6095F89472
:100680002081112319F1282B2083E7012197F1F70D
:1006900028E0462F50E0308160FF1AC0382B3083AD
:1006A000E7012197F1F7BA0175956795215089F710
:1006B000112381F08081892380830FBF5C968D9107
:1006C0009C910197F1F781E090E0C1CF2923DCCF25
:1006D0003923E5CF9081892BEFCF209174013091A0
:1006E00075012817390761F4809173012091720117
:1006F00090E0805C9F4F821B91098F73992708952A
:1007000090E080E0089520917401309175012817E0
:100710003907B9F49091720180917301981789F0AB
:10072000E0917201F0E0EE5CFE4F80812091720159
:1007300030E02F5F3F4F2F7333272093720190E0FB
:1007400008958FEF9FEF089590E080E008951F9245
:100750000F920FB60F9211242F933F938F939F9375
:10076000AF93BF938091270290912802A091290214
:10077000B0912A023091260223E0230F2D3758F53D
:100780000196A11DB11D209326028093270290930C
:100790002802A0932902B0932A0280912B02909103
:1007A0002C02A0912D02B0912E020196A11DB11D27
:1007B00080932B0290932C02A0932D02B0932E02D3
:1007C000BF91AF919F918F913F912F910F900FBE4D
:1007D0000F901F90189526E8230F0296A11DB11DBA
:1007E000D2CF1F920F920FB60F9211242F933F93E7
:1007F0004F935F936F937F938F939F93AF93BF9329
:10080000EF93FF938091180290911902A0911A0220
:10081000B0911B02892B8A2B8B2BD1F19091130263
:10082000E0911402F09115028081892780838091E4
:10083000180290911902A0911A02B0911B02181689
:1008400019061A061B069CF4809118029091190251
:10085000A0911A02B0911B020197A109B1098093DE
:10086000180290931902A0931A02B0931B02FF91F1
:10087000EF91BF91AF919F918F917F916F915F9118
:100880004F913F912F910F900FBE0F901F90189591
:10089000809100010E949F02EACF1F920F920FB633
:1008A0000F9211242F933F934F935F936F937F93F6
:1008B0008F939F93AF93BF93EF93FF9386E791E05E
:1008C0000E94CA00FF91EF91BF91AF919F918F91CC
:1008D0007F916F915F914F913F912F910F900FBE3C
:1008E0000F901F9018951F920F920FB60F92112420
:1008F0002F938F939F93EF93FF93E0918601F09155
:1009000087018081E0918C01F0918D0182FD1BC0F7
:10091000908180918F018F5F8F732091900182175A
:1009200041F0E0918F01F0E0EA58FE4F958F8093FF
:100930008F01FF91EF919F918F912F910F900FBE9B
:100940000F901F9018958081F4CF1F920F920FB6D1
:100950000F9211242F933F934F935F936F937F9345
:100960008F939F93AF93BF93EF93FF93E0917401A5
:10097000F0917501309749F0A685B7858585968DEC
:1009800091FF14C09C918923A1F4FF91EF91BF9135
:10099000AF919F918F917F916F915F914F913F9117
:1009A0002F910F900FBE0F901F9018959C91892347
:1009B00061F7A389B4899C918589809589238C935B
:1009C000868997890197F1F7608D718DA685B78526
:1009D000558538E020E0CB010197F1F7822F90E0B8
:1009E00095958795282F4C91452309F02068315023
:1009F00091F7868D81FD20958091730190E001969D
:100A00008F73992730917201381799F0A091730173
:100A1000B0E0AE5CBE4F2C9380937301828D938DBA
:100A20000197F1F7A389B4898C919589892B8C93CF
:100A3000ACCF868D8160868FF1CF789484B582604B
:100A400084BD84B5816084BD85B5826085BD85B572
:100A5000816085BD80916E00816080936E001092F0
:100A6000810080918100826080938100809181006B
:100A700081608093810080918000816080938000FC
:100A80008091B10084608093B1008091B00081605A
:100A90008093B00080917A00846080937A00809186
:100AA0007A00826080937A0080917A0081608093DE
:100AB0007A0080917A00806880937A001092C10059
:100AC00082E190E00E94FD088C018FEF90E0D80158
:100AD00013969C938E93129782E090E015969C93C8
:100AE0008E93149783E090E017969C938E931697BD
:100AF00084E090E019969C938E93189785E090E09F
:100B00001B969C938E931A9786E090E01D969C937B
:100B10008E931C9789E090E01F969C938E931E976E
:100B20008BE090E051969C938E9350978FE190E0EC
:100B30000E94FD08EC011B821A8288EE93E0A0E07F
:100B4000B0E08C839D83AE83BF838DE191E0998378
:100B500088831F8A1E8A198E188E1B8E1A8E1D8EF0
:100B60001C8E6E8D6E7F6D7F6E8F6695617081E0DD
:100B7000682783E00E946D0161E083E00E94B90173
:100B8000EEE9F0E0E491E88BEAE8F0E0E491F0E0EF
:100B9000EE0FFF1FE358FF4F859194919A8B898B3D
:100BA00060E082E00E94B9018E8D81FD04C061E0A9
:100BB00082E00E946D0182E08C87EDE9F0E0E49133
:100BC000ED87E9E8F0E0E491F0E0EE0FFF1FE8596F
:100BD000FF4F859194919F878E87F801D183C083C1
:100BE0008DE991E09D8F8C8F8DEB90E09F8B8E8BAC
:100BF0008BE991E0998F888F8CE291E09B8F8A8FAF
:100C0000809168008460809368009C852DE630E0C8
:100C1000983050F02BE630E09E3030F02CE630E09B
:100C2000963110F030E020E03C8B2B8B292F30E008
:100C3000983008F081C081E001C0880F9A95EAF7EA
:100C40008D8B8C8D9D8D0197F1F78A8D9B8D892BD6
:100C500009F1E0917401F0917501CE17DF07D1F031
:100C6000309739F0A389B4899C918589809589232F
:100C70008C938E8D8E7F8E8F1092730110927201E5
:100C8000D0937501C0937401EB89FC8980819D89A3
:100C9000892B808364E670E080E090E00E946C0223
:100CA00063E070E090E080E00E94220AEC0150E0F6
:100CB00040E0009739F018826BE271E00E94E80A88
:100CC00042E050E0D801ED90FC90D701ED91FC910D
:100CD0000280F381E02DBE01C7010995D701ED9196
:100CE000FC910280F381E02D42E050E06EE271E081
:100CF000C701099564E670E080E090E00E946C0214
:100D0000F80180819181DC01ED91FC910084F185F5
:100D1000E02D0995892BE9F0F80180819181DC01B2
:100D2000ED91FC910284F385E02D0995682F86E70B
:100D300091E00E94EC00E4CF9E3040F4285031094D
:100D400081E001C0880F2A95EAF77ACF2E50310949
:100D5000F7CF209719F0CE010E94990961E085E054
:100D60000E94B90161E086E00E94B90161E089E07A
:100D70000E94B90161E08BE00E94B90161E084E06A
:100D80000E94B90170E060E085E00E94EA0170E035
:100D900060E086E00E94EA0170E060E089E00E9485
:100DA000EA0170E060E08BE00E94EA011093250206
:100DB00000932402F80180819181DC01ED91FC9186
:100DC0000084F185E02D0995892BE1F571EEE72E80
:100DD00074E0F72EE2E76E2EE0E07E2EF8EC8F2E28
:100DE000912CA12CB12C60E0C62E60E0D62EC091D3
:100DF0002402D091250288819981DC01ED91FC913A
:100E00000084F185E02D0995892B99F188819981DC
:100E1000DC01ED91FC910284F385E02D0995863487
:100E200009F465C0FCF4823409F477C0833409F412
:100E30006EC18033F1F4C0912402D091250270E09C
:100E400060E08AC0F80180819181DC01ED91FC9124
:100E50000284F385E02D0995682F86E791E00E94D2
:100E6000EC00A8CF823509F482C07CF48C3409F4FC
:100E70006DC0C114D10409F4BACF0E94590188236E
:100E800009F4B5CF0E940000AECF833509F433C119
:100E9000843579F7C0912402D091250288859985FF
:100EA0002091000128136AC0F301149117FD11C1AC
:100EB00061E00E94B901112309F4DEC0123009F08B
:100EC000EFC08091B10087608093B1008DE4809382
:100ED000B3008092180290921902A0921A02B09266
:100EE0001B0280917000826080937000F2C0C091FC
:100EF0002402D09125026A817B818A850E94EA01C1
:100F000070E060E08C850E94EA016A817B818E85B9
:100F10000E94EA0170E060E015C0C0912402D09107
:100F2000250270E060E08A850E94EA016A817B8187
:100F30008C850E94EA0170E060E08E850E94EA01E3
:100F40006A817B8188890E94EA0193CFC091240243
:100F5000D09125026A817B818A850E94EA0170E036
:100F600060E08C850E94EA0170E060E0D0CFC09123
:100F70002402D091250270E060E0BFCF2F3F09F03E
:100F8000A8C080930001F3012491122F2F3F09F490
:100F9000A0C0213039F148F0223009F446C027FDC5
:100FA00098C061E00E94B90189CF14BC15BC24B57A
:100FB000226024BD25B5216025BD9C013327F901A0
:100FC000E957FF4FE491F0E0EE0FFF1FE358FF4FAA
:100FD00045915491F901E556FF4FE491E0931702D2
:100FE00010E066CF10928000109281002091810065
:100FF000286020938100209181002160209381004E
:101000009C013327F901E957FF4FE491F0E0EE0F1F
:10101000FF1FE358FF4F45915491F901E556FF4FEB
:10102000E491E093160211E043CF1092B0001092C9
:10103000B1002091B00022602093B0002091B10057
:1010400021602093B1009C013327F901E957FF4F3C
:10105000E491F0E0EE0FFF1FE358FF4F45915491EC
:101060005093150240931402F901E556FF4FE491A5
:10107000E093130212E01CCF85B5887F856085BDA3
:101080008DE487BD8092200290922102A0922202DC
:10109000B092230280916E00826080936E0019C02E
:1010A000113009F580918100887F836080938100F1
:1010B000F0928900E092880080921C0290921D02BA
:1010C000A0921E02B0921F0280916F0082608093F6
:1010D0006F0064E175E080E090E00E946C0288851A
:1010E0000E949F02C6CE123021F01111F2CF81EE84
:1010F000C8CF81EEECCEC0912402D09125026A8146
:101100007B818A850E94EA0170E060E011CFC09186
:101110002402D091250270E060E08A850E94EA01F5
:101120006A817B81EFCEE6E7F1E01382128288EEDE
:1011300093E0A0E0B0E084839583A683B7838BE03F
:1011400091E09183808385EC90E09587848784EC9F
:1011500090E09787868780EC90E0918B808B81EC84
:1011600090E0938B828B82EC90E0958B848B86EC65
:1011700090E0978B868B118E128E138E148E0895AD
:101180002F923F924F925F926F927F928F929F9297
:10119000AF92BF92CF92DF92EF92FF920F931F9385
:1011A000CF93DF93CDB7DEB7CA1BDB0B0FB6F89436
:1011B000DEBF0FBECDBF09942A88398848885F8476
:1011C0006E847D848C849B84AA84B984C884DF80E7
:1011D000EE80FD800C811B81AA81B981CE0FD11DCB
:1011E0000FB6F894DEBF0FBECDBFED010895EE0F30
:1011F000FF1F0590F491E02D09940F931F93CF9357
:10120000DF938230910510F482E090E0E0913102AA
:10121000F091320230E020E0B0E0A0E0309799F4A5
:101220002115310509F44AC0281B390B243031053A
:10123000D8F58A819B816115710589F1FB01938342
:101240008283FE0111C040815181028113814817C0
:101250005907E0F04817590799F4109761F0129672
:101260000C93129713961C933296CF01DF91CF9176
:101270001F910F9108950093310210933202F4CF21
:101280002115310551F04217530738F0A901DB0150
:101290009A01BD01DF01F801C1CFEF01F9CF9093B1
:1012A000320280933102CDCFFE01E20FF31F819312
:1012B00091932250310939832883D7CF20912F026F
:1012C00030913002232B41F420910301309104012D
:1012D0003093300220932F022091010130910201BE
:1012E0002115310541F42DB73EB7409105015091CC
:1012F0000601241B350BE0912F02F0913002E2171A
:10130000F307A0F42E1B3F0B2817390778F0AC0128
:101310004E5F5F4F2417350748F04E0F5F1F509305
:10132000300240932F02819391939FCFF0E0E0E051
:101330009CCFCF93DF930097E9F0FC0132971382A3
:101340001282A0913102B0913202ED0130E020E032
:101350001097A1F420813181820F931F20912F02D9
:10136000309130022817390709F061C0F09330023C
:10137000E0932F02DF91CF910895EA01CE17DF07A6
:10138000E8F54A815B819E0141155105B1F7E901FC
:10139000FB83EA8349915991C40FD51FEC17FD07D0
:1013A00061F4808191810296840F951FE9019983F0
:1013B0008883828193819B838A83F0E0E0E01296A8
:1013C0008D919C9113970097B9F52D913C911197B0
:1013D000CD010296820F931F20912F02309130028F
:1013E0002817390739F6309751F5109232021092CA
:1013F0003102B0933002A0932F02BCCFD383C283BB
:1014000040815181840F951FC817D90761F44E5F41
:101410005F4F88819981480F591F518340838A818A
:101420009B81938382832115310509F0B0CFF0931E
:101430003202E09331029ECFFD01DC01C0CF138266
:101440001282D7CFB0E0A0E0E8E2FAE00C94C20844
:101450008C01009751F4CB010E94FD088C01C8015A
:10146000CDB7DEB7E0E10C94DE08FC01E60FF71F14
:101470009C0122503109E217F30708F49DC0D901FD
:10148000CD91DC911197C617D70798F0C530D105DB
:1014900030F3CE0104978617970708F3C61BD70BC6
:1014A0002297C193D1936D937C93CF010E949909A8
:1014B000D6CF5B01AC1ABD0A4C018C0E9D1EA091CB
:1014C0003102B0913202512C412CF12CE12C1097B9
:1014D00031F580912F02909130028815990509F01D
:1014E0005CC04616570608F058C0809101019091E3
:1014F0000201009741F48DB79EB7409105015091CC
:101500000601841B950BE817F90708F055C0F09306
:101510003002E0932F02F90171836083A0CF8D9197
:101520009C91119712966C90129713967C9013973A
:10153000A815B90559F56C0142E0C40ED11CCA14B6
:10154000DB0420F1AC014A195B09DA011296159708
:1015500080F06282738251834083D9016D937C93C2
:10156000E114F10471F0D7011396FC93EE931297F6
:1015700076CF22968C0F9D1FF90191838083F30112
:10158000EFCFF0933202E093310269CF481659064B
:1015900008F42C017D01D3019ACFCB010E94FD08F4
:1015A0007C01009749F0AE01B8010E94DF0AC80132
:1015B0000E949909870153CF10E000E050CFFB0152
:1015C000DC0102C001900D9241505040D8F70895BF
:1015D000FB01DC0101900D920020E1F70895F894E1
:0215E000FFCF3B
:1015E200FF00003302800000000000EC00CB028DFF
:1015F200003901BE009C00B000000000001103CBC6
:1016020002A40310036D038303F8024154000D0A80
:021612000000D6
:00000001FF
